:100000000C9498030C94C0030C94C0030C94C0038C
:100010000C94C0030C94C0030C94C0030C94C00354
:100020000C94C0030C94C0030C943D090C94AC09CF
:100030000C94C0030C94C0030C94C0030C94C00334
:100040000C94C0030C94C0030C94C0030C94C00324
:100050000C94C0030C94C0030C94C0030C94DE0BEE
:100060000C94C0030C94C0030C94C0030C94C00304
:100070000C94C0030C94C0030C94C0030C94C003F4
:100080000C94C0030C94C0030C94C0030C94C003E4
:100090000C94C0030C94C0030C94C0030C94C003D4
:1000A0000C94C0030C94C0030C94C0030000000027
:1000B000003E5B4F5B3E3E6B4F6B3E1C3E7C3E1CEE
:1000C000183C7E3C181C577D571C1C5E7F5E1C0034
:1000D000183C1800FFE7C3E7FF0018241800FFE7EB
:1000E000DBE7FF30483A060E2629792926407F05AE
:1000F0000507407F05253F5A3CE73C5A7F3E1C1CC4
:1001000008081C1C3E7F14227F22145F5F005F5F83
:1001100006097F017F006689956A6060606060946F
:10012000A2FFA29408047E040810207E2010080874
:100130002A1C08081C2A08081E101010100C1E0C7F
:100140001E0C30383E3830060E3E0E060000000011
:100150000000005F00000007000700147F147F14F8
:10016000242A7F2A1223130864623649562050003D
:1001700008070300001C2241000041221C002A1C29
:100180007F1C2A08083E0808008070300008080814
:100190000808000060600020100804023E51494534
:1001A0003E00427F400072494949462141494D3352
:1001B0001814127F1027454545393C4A49493141B9
:1001C000211109073649494936464949291E000087
:1001D00014000000403400000008142241141414DC
:1001E0001414004122140802015909063E415D59C8
:1001F0004E7C1211127C7F494949363E41414122D1
:100200007F4141413E7F494949417F090909013EFA
:10021000414151737F0808087F00417F4100204021
:10022000413F017F081422417F404040407F021C33
:10023000027F7F0408107F3E4141413E7F0909094A
:10024000063E4151215E7F09192946264949493216
:1002500003017F01033F4040403F1F2040201F3FDC
:100260004038403F63140814630304780403615961
:10027000494D43007F4141410204081020004141A3
:10028000417F04020102044040404040000307084F
:100290000020545478407F2844443838444444284B
:1002A000384444287F385454541800087E090218F2
:1002B000A4A49C787F0804047800447D400020407A
:1002C000403D007F1028440000417F40007C0478BE
:1002D00004787C080404783844444438FC18242406
:1002E0001818242418FC7C08040408485454542486
:1002F00004043F44243C4040207C1C2040201C3C03
:100300004030403C44281028444C9090907C4464F9
:10031000544C44000836410000007700000041368C
:10032000080002010204023C2623263C1EA1A16112
:10033000123A4040207A3854545559215555794144
:100340002154547841215554784020545579400C1B
:100350001E527212395555555939545454593955FC
:100360005454580000457C410002457D420001453F
:100370007C40F0292429F0F0282528F07C545545AC
:10038000002054547C547C0A097F4932494949323F
:100390003248484832324A4848303A4141217A3A54
:1003A00042402078009DA0A07D39444444393D401E
:1003B00040403D3C24FF2424487E4943662B2FFCCB
:1003C0002F2BFF0929F620C0887E09032054547979
:1003D000410000447D413048484A32384040227A4A
:1003E000007A0A0A727D0D19317D2629292F2826C7
:1003F0002929292630484D402038080808080808CF
:100400000808382F10C8ACBA2F102834FA00007B27
:10041000000008142A142222142A1408950022002D
:1004200095AA005500AAAA55AA55AA000000FF00E7
:10043000101010FF00141414FF001010FF00FF1024
:1004400010F010F0141414FC001414F700FF000056
:10045000FF00FF1414F404FC141417101F10101FD5
:10046000101F1414141F00101010F0000000001FC3
:10047000101010101F10101010F010000000FF10CE
:100480001010101010101010FF10000000FF1400CA
:1004900000FF00FF00001F10170000FC04F41414FC
:1004A0001710171414F404F40000FF00F7141414C8
:1004B00014141414F700F7141414171410101F1048
:1004C0001F141414F4141010F010F000001F101F6B
:1004D0000000001F14000000FC140000F010F010D9
:1004E00010FF10FF141414FF141010101F00000050
:1004F00000F010FFFFFFFFFFF0F0F0F0F0FFFFFF54
:100500000000000000FFFF0F0F0F0F0F38444438AA
:10051000447C2A2A3E147E02020606027E027E02E5
:1005200063554941633844443C04407E201E200604
:10053000027E020299A5E7A5991C2A492A1C4C7241
:1005400001724C304A4D4D303048784830BC625AC8
:10055000463D3E494949007E0101017E2A2A2A2A58
:100560002A44445F444440514A444040444A514034
:100570000000FF0103E080FF000008086B6B0836F5
:1005800012362436060F090F060000181800000066
:100590001010003040FF0101001F01011E00191D55
:1005A0001712003C3C3C3C0000000000F0F89C8E20
:1005B0008783878E9CF8F00000FEFF03030303038C
:1005C000070EFCF80000FEFF0303030303070EFC05
:1005D000F80000FFFF00000000000000FFFF000027
:1005E000FEFF8383838383C7EE7C380000F8FC0E14
:1005F00007030303070EFCF800003F7FE0C0808084
:10060000C0E07F3FFFFF01010101010101FFFF0089
:1006100000FFFF0C0C0C0C1C3E77E3C100007FFFB9
:10062000C0C0C0C0C0E0703F1F00001F3F70E0C0EE
:10063000C0C0E0703F1F00007FFFC1C1C1C1C1E366
:10064000773E1C00001F3F70E0C0C0C0E0703F1F3D
:10065000000000000001FFFF01000000D5F08D1434
:10066000A1C881CFD9F1AF20003E09093F3F3E002C
:10067000003F3F2020202000003F060C063F3F00A7
:10068000001E3F21213F1E00001227253D3D18007E
:100690000001013F3F01010000000000003F3F0951
:1006A000090F0600001E3F21213F1E00003F060CDF
:1006B000183F3F00001E3F21293B3A080B00020271
:1006C00002000009040000010202000005240010DD
:1006D0000105240101010424020605240600010786
:1006E00005810310004009040100020A0000000710
:1006F00005020240000007058302400000040309D0
:100700000412010002EF0201404123378000010181
:1007100002030141726475696E6F204C4C430041C5
:10072000726475696E6F204D6963726F0000A00C72
:1007300011241FBECFEFDAE0DEBFCDBF11E0A0E095
:10074000B1E0EAEDF9E202C005900D92AA38B107D6
:10075000D9F726E0AAE8B1E001C01D92A531B207A1
:10076000E1F713E0C8E9D3E004C02197FE010E943D
:10077000E014C739D107C9F70E94D10C0C94EB14CF
:100780000C940000480F592F511D1416150684F5BE
:10079000803891056CF597FF02C090E080E0413809
:1007A000510514F040E850E0481BFB01E770FF27BB
:1007B00021E001C0220FEA95EAF777FF02C0695FE6
:1007C0007F4FFB0133E0F595E7953A95E1F7F69514
:1007D000FE2FEE27F795E795E80FF91FE255FE4F3C
:1007E000415030F08191DF011197822B8C93F8CF2B
:1007F000089580E0EEEAF1E081118FEF002481930B
:100800008193819381930394D1F70895EEEAF1E007
:10081000A0E0B8E000800EBC8111012C1197A0FD72
:10082000FDCF0192B9F70DB408958F929F92AF92C8
:10083000BF92CF92DF92EF92FF920F931F93CF93CD
:10084000DF93FC01E20FF11DF7FD88C080349105B4
:100850000CF084C0DC0197FF04C0AA27BB27A81BAB
:10086000B90BA770BB27FC0197FD379633E0F595D0
:10087000E7953A95E1F797FF07C0319788E090E058
:10088000EC01CA1BDB0BDE01E22EE694E694E69453
:10089000F12C277019F0DFEFED1AFD0A50E0CF01BF
:1008A000EB018F011695102F00271795079502551C
:1008B0001E4F97012E0F3F1F68E070E05B01AA1AE0
:1008C000BB0A8217930709F449C08830910509F4DF
:1008D00045C08F3FEFEF9E07C4F170E060E0780104
:1008E000F0E8EF0EF11C8F3F9807A9F1FE01E60F2B
:1008F000F71FE4916801C60ED71EF0E04F010A2EE3
:1009000001C0880C0A94EAF7F60194888928848A41
:100910001097B1F08730910599F0FB01EC0FFD1FA6
:10092000E4916701C60ED71EF0E04F010A2C02C009
:10093000959487940A94E2F7F60194888928848A2A
:100940006F5F7F4F6417750774F20196C40FD51F50
:1009500000581F4FB6CF109799F3DFCFDF91CF919B
:100960001F910F91FF90EF90DF90CF90BF90AF90CD
:100970009F908F900895FC018091AD01882311F123
:100980003FB7F89482E08093E9002091F200822F33
:1009900090E01816190614F481E090E0882339F0ED
:1009A000289A44E64093AC014091F1004083222311
:1009B00039F02091F200211103C02BE62093E800CA
:1009C0003FBF08958FEF9FEF08952FB7F89483E00E
:1009D0008093E9009091E800892F807295FF04C010
:1009E0009091F20080E4891B2FBF08958091A401AB
:1009F00081110DC082E08093A00184E08093A10169
:100A00001092A3011092A20181E08093A40180EAD8
:100A100091E00895CF93DF931F92CDB7DEB769833E
:100A2000DC01ED91FC910280F381E02D41E050E08A
:100A3000BE016F5F7F4F09950F90DF91CF910895B1
:100A400083E08093E9008091F200882319F08AE323
:100A50008093E80008950E94E50490E00895CF9304
:100A6000DF931F92CDB7DEB7FC018485958597FD96
:100A700008C02FEF3FEF358724870F90DF91CF918C
:100A80000895CE0101960E94BB04019719F4898153
:100A900090E0F3CF8FEF9FEFF0CF0F931F93CF93A3
:100AA000DF931F92CDB7DEB78C01FC01848595855D
:100AB00097FF0BC0CE0101960E94BB04019771F411
:100AC000898190E0F80195878487F8018485958570
:100AD0000F90DF91CF911F910F9108958FEF9FEFAE
:100AE000F1CFFC018485958597FD0BC09FB7F894E5
:100AF00082E08093E9008091F2009FBF90E0019630
:100B000008959FB7F89482E08093E9008091F20005
:100B10009FBF90E0089540919A0150919B012091D0
:100B200098013091990142175307B4F49091E8006D
:100B30009570E1F39091E80092FD19C08093F10067
:100B400080919A0190919B0101968F739927892B2F
:100B500019F48EEF8093E80080919A0190919B01A7
:100B6000019690939B0180939A0181E0089580E023
:100B70000895DF92EF92FF920F931F93CF93DF932D
:100B8000D82E8A01EB017B01E40EF51ECE15DF05A0
:100B900059F0D7FE12C0FE0184910E948B05219668
:100BA0008111F4CF0FEF1FEFC801DF91CF911F919B
:100BB0000F91FF90EF90DF9008958881EECF0F9313
:100BC0001F93CF93DF931F92CDB7DEB782E0898367
:100BD00042E450E06BEB76E080E80E94B9050E94A9
:100BE000F604DC0112960D911C910115110589F096
:100BF000D801ED91FC910280F381E02DBE016F5F81
:100C00007F4FC801099597FD04C0F8010085118543
:100C1000ECCF89810F90DF91CF911F910F910895B3
:100C2000615030F02091F100FC0120830196F8CF53
:100C3000289A84E68093AC010895AF92BF92CF9238
:100C4000DF92EF92FF920F931F93CF93DF936C018C
:100C50007B018B01040F151FEB015E01AE18BF086D
:100C6000C017D10759F06991D601ED91FC9101901F
:100C7000F081E02DC6010995892B79F7C501DF9137
:100C8000CF911F910F91FF90EF90DF90CF90BF9089
:100C9000AF9008953FB7F89480918B0190918C01AB
:100CA000A0918D01B0918E0126B5A89B05C02F3F64
:100CB00019F00196A11DB11D3FBFBA2FA92F982F82
:100CC0008827BC01CD01620F711D811D911D42E07D
:100CD000660F771F881F991F4A95D1F708958F9245
:100CE0009F92AF92BF92CF92DF92EF92FF926B01F1
:100CF0007C010E944A064B015C01C114D104E1044D
:100D0000F104B9F00E944A06681979098A099B0919
:100D1000683E73408105910580F321E0C21AD10835
:100D2000E108F10888EE880E83E0981EA11CB11C32
:100D3000E4CFFF90EF90DF90CF90BF90AF909F9067
:100D40008F9008958F929F92AF92BF92CF92DF9231
:100D5000EF92FF920F931F93CF93DF936C017B0170
:100D60008A0180912D01882309F45CC08091AD0136
:100D7000882309F457C080919F0180FF05C08091AE
:100D8000E00082608093E000E801B12C8AEFA82E99
:100D900093E0892E2AE3922E209711F4BB20D9F1FB
:100DA0000E94E50481110AC0AA94AA20D9F161E049
:100DB00070E080E090E00E946F06EECF8C171D0679
:100DC00011F00CF08C2F9FB7F8948092E9002091DD
:100DD000E80025FD02C09FBFDFCF282F30E0C21BF7
:100DE000D30BF701815020F041914093F100FACFED
:100DF000E20EF31EBB2021F09092E800B12CEBCF65
:100E00008091E80085FDE7CF9092E800BB24B39481
:100E1000209709F3F3CF5D9A84E680939E01101624
:100E200011063CF081E090E0F6019383828310E0AC
:100E300000E0C801DF91CF911F910F91FF90EF90DB
:100E4000DF90CF90BF90AF909F908F9008952D9A94
:100E50000895BC0190E080E00C946F068FB18095FE
:100E6000807F669B88601C9B8460089520E191E0F0
:100E700061FD94E060FD990F62FD9295687F269F69
:100E8000D0011124A80FA255BE4F8C9140FF03C082
:100E9000892B8C93089590958923FBCFEF92FF9235
:100EA0000F931F93CF93DF937C018B01040F111DD0
:100EB000EB0177FF02C0D0E0C0E0C80101341105AA
:100EC00014F080E490E0C817D9075CF480E8E816D5
:100ED000F10428F441E0BE01C7010E9436072196C3
:100EE000ECCFDF91CF911F910F91FF90EF9008957C
:100EF000EF92FF920F931F93CF93DF937C018B01AF
:100F0000C42FD22F6034710510F40E94C203B801BF
:100F10006D0F711D615071096034710520F44C2F03
:100F2000C7010E94C2034D2FB801C7010E944E079E
:100F3000C7018C0F911D4D2FB8010197DF91CF9103
:100F40001F910F91FF90EF900C944E072F923F92BC
:100F50004F925F926F927F928F929F92AF92BF92C9
:100F6000CF92DF92EF92FF920F931F93CF93DF9375
:100F7000CDB7DEB728970FB6F894DEBF0FBECDBF52
:100F80009E838D836A3061F5DC0155968C91B8E0C3
:100F90008B9F90011124ED81FE8181899289820FBE
:100FA000931F928B818B108A178681E090E02896A0
:100FB0000FB6F894DEBF0FBECDBFDF91CF911F916A
:100FC0000F91FF90EF90DF90CF90BF90AF909F90E8
:100FD0008F907F906F905F904F903F902F900895EB
:100FE0006D3019F32D813E8138872F83D9011F96EB
:100FF0000D911C915097003811050CF07CC0519652
:10100000AD90BC90B0E4AB16B1040CF074C0F90123
:10101000258825E0C801229E800D911D11241816F7
:1010200019060CF068C0622C712CC30133E0880FE4
:10103000991F3A95E1F78A0D9B1D181619060CF0B9
:101040005AC0F489FB83AF81B8855396BC91BC83A9
:10105000629FB0011124FB01E455FF4F2F0119825B
:10106000F2018491F981F53009F480E0450128E02E
:101070002A83A82FB0E0BE83AD833C8080FF3B80F5
:10108000311004C0BB81EC81BE17F9F078018E2DC0
:10109000801B8215D0F4D12CC12CC21490F4F0E83E
:1010A000EF16F10450F4B601680D791D6034710536
:1010B00020F4432DC7010E9436072FEFC21AD20A2F
:1010C000ECCF3FEFE31AF30AE2CF8D819E81959535
:1010D00087959A8191509A83860C971C9111C9CF5C
:1010E000A981AF5FA983BFEF4B1A5B0A060D171DDD
:1010F000A63009F0B5CFEF81F8852589422F50E061
:1011000087859089F6E02F9F800D911D1124AF8176
:10111000B88550969C938E931F9756962C91569710
:10112000222309F442CF6AEF64039001659F300DDA
:10113000112420583F4F281739070CF036CFED9176
:10114000FC9111970190F081E02D6AE0CD010995A5
:101150002CCF0895089590E080E008958F929F929B
:10116000AF92BF920F931F93CF93DF93CDB7DEB7AC
:10117000A1970FB6F894DEBF0FBECDBF19A24230C3
:1011800008F44AE08E010F5D1F4F842E912CB12C84
:10119000A12CA50194010E94CF12E62FB901CA012A
:1011A000EA3044F5E05DD801EE938D01232B242B2A
:1011B000252B79F790E080E0109769F0FD01019010
:1011C0000020E9F73197AF014A1B5B0BBD018EEFA1
:1011D00095E00E941D06A1960FB6F894DEBF0FBEE3
:1011E000CDBFDF91CF911F910F91BF90AF909F9096
:1011F0008F900895E95CD7CFFC0101900020E9F7BA
:101200003197AF01481B590BBC018EEF95E00C9450
:101210001D06CF92DF92EF92FF92CF93DF936C0186
:10122000990FEE08FF08F7FE19C06DE28EEF95E00A
:101230000E94A607EC0166277727CB016C197D0970
:101240008E099F094AE00E94AE088C0F9D1FDF9116
:10125000CF91FF90EF90DF90CF9008954AE0C701C3
:10126000B601DF91CF91FF90EF90DF90CF900C947B
:10127000AE080C9487120E94E6141F920F920FB6CC
:101280000F9211248F939F938091E1009091E10040
:10129000937F9093E10083FF0FC01092E90091E0EB
:1012A0009093EB001092EC0092E39093ED0010927B
:1012B000AD0198E09093F00082FF22C093E09093FC
:1012C000E9009091F200992319F09AE39093E800D5
:1012D00090919E01992341F090919E01915090939D
:1012E0009E01911101C05D989091AC01992341F04C
:1012F0009091AC0191509093AC01911101C028984C
:1013000084FF18C08091E2008E7E81608093E200AD
:101310008091E1008F7E8093E10080919F018E7E1D
:10132000806180939F019F918F910F900FBE0F90CE
:101330001F90189580FFF7CF8091E2008E7E80612C
:101340008093E2008091E1008E7E8093E1008091A5
:101350009F018E7E8160E5CF1F920F920FB60F9294
:101360001124CF92DF92EF92FF920F931F932F934E
:101370003F934F935F936F937F938F939F93AF931D
:10138000BF93EF93FF93CF93DF93CDB7DEB76C9707
:10139000DEBFCDBF1092E9008091E80083FF25C039
:1013A00068E0CE0145960E94100682EF8093E80027
:1013B0008D8987FF39C09091E80090FFFCCF982F6E
:1013C000907609F034C19E894F89588D2F89F88C09
:1013D000911131C0803861F580919D018093F100B9
:1013E0001092F1008EEF8093E8006C960FB6F8949F
:1013F000DEBF0FBECDBFDF91CF91FF91EF91BF91C7
:10140000AF919F918F917F916F915F914F913F919C
:101410002F911F910F91FF90EF90DF90CF900F9041
:101420000FBE0F901F9018959EEF9093E800C7CFC6
:101430001092F100D5CF913059F48111D3CF4130C2
:10144000510581F680919D018D7F80939D01CACFCA
:10145000933049F48111C6CF4130510519F680917E
:101460009D018260F2CF953041F48091E80080FFC9
:10147000FCCF20682093E300B5CF963009F0A9C0D7
:101480000B8D1C8D22E01092E90010929B011092AE
:101490009A01F2122EC010929901109298010E94A6
:1014A000DF051F8299E09983FA8291E09E8390EA9A
:1014B00098879AEF998720919A0130919B01275F35
:1014C0003F4F3C832B838D831092E90010929B0148
:1014D00010929A01109399010093980149E050E00D
:1014E000BE016F5F7F4F80E00E94B9050E94DF055B
:1014F00079CF10939901009398010E94F604DC01C2
:1015000012960D911C910115110509F451C1D801D4
:10151000ED91FC910480F581E02DBE016B5E7F4F63
:10152000C8010995009709F03EC1F80100851185B1
:10153000EACFF3E0FF120EC08F89882309F440C080
:10154000823061F440E86DE08FE197E00E94280C62
:10155000811148CF81E28093EB0047CF813029F49D
:1015600040E86BE083E197E0F1CF833099F70E9488
:10157000F604DC011296ED90FC908E010F5F1F4F78
:101580006801E114F10479F0D701ED91FC91068036
:10159000F781E02DB801C7010995080F111DF7016A
:1015A000E084F184EECFD8011C92F6010190002076
:1015B000E9F73197BF016C197D0940E0C601C6CF3C
:1015C0006DEF76E0FB01449150E080E80E94B905A0
:1015D00009CF973009F4BECF983021F481E0809391
:1015E000F10000CF993009F0FDCE837009F0B2CF41
:1015F000E3E3F1E081E031E096E32191222371F011
:101600008093E9003093EB00DF0111972C91209338
:10161000EC009093ED008F5F873079F78EE7809331
:10162000EA001092EA008F898093AD01DBCE8B8DAA
:101630009C8D1092E90010929B0110929A01909358
:10164000990180939801898D811192C08E899D891D
:10165000913A49F4813209F07DCF47E050E066E2EB
:1016600071E080E0B3CF913209F074CF833269F436
:101670008F89988DB0E0A0E08093220190932301A0
:10168000A0932401B0932501ADCE803269F48091FE
:10169000E80082FFFCCF67E086E291E00E9410063E
:1016A0008BEF8093E8009ECE823209F09BCE8F892B
:1016B00080932D01EEEFFFE7859194918B3F9C4D38
:1016C00051F1E0E0F8E08091260190912701A0918E
:1016D0002801B0912901803B9440A105B105F1F4A6
:1016E00080912D0180FD1AC0EE3F8AE0F80789F550
:1016F00087E797E7918380838091600080939C01C6
:1017000088E19BE00FB6F894A895809360000FBE27
:101710009093600067CEEEEFFAE0D5CF80819181A3
:101720008737974709F05ECEA89580916000886161
:101730008093600080919C0180936000EE3F2AE0DE
:10174000F20789F08091FE0A9091FF0A91838083CD
:1017500049CE808191818737980751F29093FF0A93
:101760008093FE0AC5CF1092FF0A1092FE0A3ACE6D
:101770000E94F604DC0112960D911C9101151105D1
:1017800009F4E8CED801ED91FC910190F081E02DB3
:10179000BE016B5E7F4FC8010995811123CEF80110
:1017A00000851185EBCF181619060CF41BCED2CE8E
:1017B000F1E0FF12BECE61E077E004CF1F920F92FE
:1017C0000FB60F9211242F933F938F939F93AF9354
:1017D000BF9380918F0190919001A0919101B09160
:1017E000920130918A0123E0230F2D3758F501969D
:1017F000A11DB11D20938A0180938F0190939001C8
:10180000A0939101B093920180918B0190918C01F2
:10181000A0918D01B0918E010196A11DB11D809303
:101820008B0190938C01A0938D01B0938E01BF9199
:10183000AF919F918F913F912F910F900FBE0F907D
:101840001F90189526E8230F0296A11DB11DD2CF37
:10185000EF92FF920F931F93CF93DF93F82E192FE0
:10186000E62E042F81E0860F880F0E948B0583E00F
:101870000E948B05CF2DD12FEC0EFD2EF11CCE1525
:10188000DF05B9F007FF13C0FE0184910E948B05AC
:10189000182F80E00E948B05812321968111EFCFC4
:1018A000DF91CF911F910F91FF90EF900895888164
:1018B000EDCF81E0F5CF0F931F93CF93DF938C0192
:1018C00081E090E00E94390980FF32C08AE090E018
:1018D0000E9439099FEF980F9E3F50F522E330E0B8
:1018E000D80150963C932E931F9728E330E05296F0
:1018F0003C932E935197CBE0D0E0D801ED91FC9131
:101900000190F081E02D682FC8010995CE010E9459
:1019100039092196C131D10581F780E00E94060482
:1019200088EE93E0DF91CF911F910F910C942907DE
:10193000DF91CF911F910F91089504970C945B0C48
:10194000EEEAF5E01382128288EE93E0A0E0B0E0C8
:1019500084839583A683B7838DE391E0918380830D
:101960008FEF9FEF95878487EEEFF5E01382128269
:101970001186128680E183871086178215868FE490
:1019800091E0918380838DE591E095838483108A33
:101990001786128A118A81E0838B148A858B168AB6
:1019A0000895CF93DF93CDB7DEB72A970FB6F8949B
:1019B000DEBF0FBECDBF789484B5826084BD84B590
:1019C000816084BD85B5826085BD85B5816085BD3A
:1019D00080916E00816080936E00109281008091F2
:1019E000810082608093810080918100816080937A
:1019F00081008091800081608093800080919100BF
:101A00008260809391008091910081608093910029
:101A1000809190008160809390008091C1008460EB
:101A20008093C1008091C10082608093C100809149
:101A3000C10081608093C1008091C3008160809368
:101A4000C3008091C00082608093C0008091C2007A
:101A500081608093C20080917A00846080937A00D4
:101A600080917A00826080937A0080917A00816010
:101A700080937A0080917A00806880937A00109237
:101A8000AD0110929D0110929F018091D70081605D
:101A90008093D70080EA8093D80089B5806189BDA2
:101AA00089B5826089BD09B400FEFDCF61E070E0B8
:101AB00080E090E00E946F068091D8008F7C80616A
:101AC0008093D8008091E000807F8093E000809137
:101AD000E1008E7E8093E1008DE08093E200559AD4
:101AE000209A5D98289881EC80937C0085B1806F66
:101AF00085B984B1877E84B984B1876E84B95E9AD2
:101B00005F988AB1806D8AB9769A6E9881B3806F3A
:101B100081BB899880B38D7080BB80E58CBD81E0EE
:101B20008DBD85E090E00E9429075F9A85E090E0F6
:101B30000E9429075E985C98ECE5F6E089E696E05D
:101B400024912EBD00000DB407FEFDCF31968E17F7
:101B50009F07B1F75C9A81E88093640080916500EB
:101B600081608093650080E00E9406040E942E0739
:101B700087FF15C05C9885EA8EBD00000DB407FE96
:101B8000FDCF5C9A2E982F982D98809164008062EA
:101B90008093640081E083BF889513BEFCCF0E94D0
:101BA0002E0782FF48C02D980E942E078478843823
:101BB000E1F40E94270788EC90E00E9429072F9803
:101BC00082E090E00E9487128F3F29F06FEF82E061
:101BD00090E00E948F1284EF91E00E9429072F9AD3
:101BE0000E942E0784788438D9F30E942E078471CE
:101BF0008431E1F40E94270788EC90E00E942907D5
:101C00002E9882E090E00E948712882329F060E0FD
:101C100082E090E00E948F1284EF91E00E942907F9
:101C20002E9A0E942E0784718431D9F388EC90E0BB
:101C30000E942907B4CF0E94270782E090E00E940B
:101C40003909882309F460C03E9A3F9A81E090E008
:101C50000E943909182F147081FF0EC011112E989F
:101C600020EF3FEF3A8329830E942E0786FF4FC063
:101C70002E9A2F9A0E94270782E390E00E9429075C
:101C80000E942E078111F8CF86E1809309060E94F9
:101C9000F9031092100610920F0610920E06109281
:101CA0000D0685E0809305018BE78093000187E3B3
:101CB000809306018DE2809301018AE2282E312C67
:101CC000412C512C0CE310E02FB7F89480918F0138
:101CD00090919001A0919101B09192012FBF20911C
:101CE0000A06382F321B232F30910B06332309F4B9
:101CF0003FC020930C0610920B0680E090E0892BE9
:101D000019F30E940000DECF3E983F989FCF112329
:101D100031F089819A81049711F42E9A2F9881E0ED
:101D20000E94060420E148E56CEA75E089819A8109
:101D30000E94150480E00E9406048FE090E00E945B
:101D40002907A981BA811196BA83A983599709F005
:101D50008BCF112311F02F9A2D9880E991E00E94EA
:101D600029070E9427078EEF95E00E945B0C84CF25
:101D700030910906231748F42F5F231708F0BDCFD1
:101D800081E083BF889513BEB8CF21E020930B0676
:101D900080930A068091050690910606019690931D
:101DA0000606809305060E94F90310921006109211
:101DB0000F0610920E0610920D0680910706809372
:101DC00008060E942E0780930706809197018111D3
:101DD00075C026E042E569E676E08FE090E00E947B
:101DE000150431E0309313068AE290E090930E06DA
:101DF00080930D068DE290E09093100680930F067D
:101E00008FE591E00E94FC0884E190E090930E063B
:101E100080930D0687E390E09093100680930F0661
:101E200087E691E00E94FC088091930190919401D3
:101E30000E94090980E00E9406048091080683FD43
:101E40003DC08091070683FF39C091E090939701D0
:101E500080E090E0A0E2B1E480930A0190930B014E
:101E6000A0930C01B0930D0180E090E0A0EAB1E4F2
:101E700080930E0190930F01A0931001B093110174
:101E800080E090E0A0E8BFE38093160190931701F3
:101E9000A0931801B093190110921A0110921B011E
:101EA00010921C0110921D010E94F903109210065D
:101EB00010920F0610920E0610920D068091970157
:101EC000833061F4809195019091960101969093F1
:101ED00096018093950181E080939701809197010D
:101EE000813009F001C210930E0600930D06AEE199
:101EF000B0E0B0931006A0930F06809195019091E9
:101F000096010E94090980910601909108018917A4
:101F100028F420910701820F809306018091060129
:101F2000981728F490910701891B8093060160910E
:101F3000060170E08091050122E142E090E00E94FC
:101F400078078091010190910301891728F420916D
:101F50000201820F8093010180910101981728F4FA
:101F600090910201891B809301016091010170E051
:101F70008091000122E142E090E00E947807809188
:101F8000080687FD04C09091070697FD06C083FDF3
:101F900010C08091070683FF0CC080E090E0A0E2B3
:101FA000B0EC80931A0190931B01A0931C01B09395
:101FB0001D018091160190911701A0911801B09117
:101FC000190189839A83AB83BC8320910A013091E4
:101FD0000B0140910C0150910D01BC01CD010E94FB
:101FE00001136B017C01C0920A01D0920B01E092B7
:101FF0000C01F0920D0180911A0190911B01A091AA
:102000001C01B0911D018D839E83AF83B887209101
:102010000E0130910F014091100150911101BC014E
:10202000CD010E9401133B014C0160920E017092A0
:102030000F018092100190921101909105069987ED
:10204000A0910606AA8790FD16C02D813E814F8182
:10205000588560911E0170911F018091200190911F
:1020600021010E94011360931A0170931B01809358
:102070001C0190931D0189859A8562E370E00E949E
:10208000CC14892B91F428EB3EE145E85FE36981AC
:102090007A818B819C810E945F14609316017093FA
:1020A0001701809318019093190120E030E040EF70
:1020B00052E4C701B6010E945A1418160CF05AC017
:1020C000A0900101B12C20E030E040E450E4C401D4
:1020D000B3010E9401136B017C01B5010B2C000CB4
:1020E000880B990B0E94AA139B01AC01C701B60192
:1020F0000E945A1418160CF062C1B5016E5E7F4F33
:10210000072E000C880B990B0E94AA139B01AC01AF
:10211000C401B3010E946D1387FF51C1C090160125
:10212000D0901701E0901801F090190120E030E004
:10213000A901C701B6010E945A14181624F4F7FA2F
:10214000F094F7F8F094C0921601D0921701E09243
:102150001801F09219010E942F12A20191010E9410
:102160009D126D5F7F4F8F4F9F4F6093030183E000
:102170008093970120E030E040EC50E460910A0148
:1021800070910B0180910C0190910D010E946D13D3
:1021900087FF61C0C0900E01D0900F01E090100148
:1021A000F090110160900601712C20E030E040E4D5
:1021B00050E4C701B6010E9401134B015C01B30159
:1021C000072C000C880B990B0E94AA139B01AC01F1
:1021D000C501B4010E945A1418160CF0F2C0B301E4
:1021E0006E5E7F4F072E000C880B990B0E94AA137E
:1021F000A70196010E945A1418160CF0E2C0C09074
:102200001601D0901701E0901801F090190120E01C
:1022100030E0A901C701B6010E945A14181624F033
:10222000F7FAF094F7F8F094C0921601D0921701E3
:10223000E0921801F09219010E942F12A20191015F
:102240000E949D126D5F7F4F8F4F9F4F60930801DB
:1022500083E080939701C0900E01D0900F01E09031
:102260001001F090110120E030E044E852E4C70191
:10227000B6010E945A1418166CF420E030E04AE7C8
:1022800053E4C701B6010E946D1387FF03C082E0CB
:102290008093970160911201709113018091140154
:1022A000909115010E9479136983C701B6010E94BC
:1022B00072136B0160910A0170910B0180910C0106
:1022C00090910D010E947213CB012981422FB6011A
:1022D0000E94780710930E0600930D062BE130E064
:1022E0003093100620930F0680919701823009F0F9
:1022F00062C00E94F9031092100610920F0610920D
:102300000E0610920D060E942F12A20191010E944A
:102310009D126D5F7F4F8F4F9F4F609301010E9411
:102320002F12A20191010E949D126D5F7F4F8F4F6E
:102330009F4F6093010180919501909196012091AA
:1023400093013091940128173907ACF490939401CC
:10235000809393018AE090E090930E0680930D069F
:102360001092100610920F0681E08093130684E706
:1023700091E00E94FC081092960110929501A3E250
:10238000B0E0B0930E06A0930D062FE030E030933E
:10239000100620930F0681E08093130680E891E0F9
:1023A0000E94FC0880E00E94060488EB9BE00E94EB
:1023B00029071092970180E00E9406049ECC82E0DB
:1023C000D7CE82E046CF8F929F92AF92BF92CF92AC
:1023D000DF92EF92FF92CF93DF93EC0168817981D6
:1023E0008A819B81611571058105910521F464E263
:1023F00079ED8BE597E02DE133EF41E050E00E946D
:102400009D1249015A019B01AC01A7EAB1E40E9467
:10241000BC126B017C01ACEEB4EFA50194010E94EB
:10242000CA12C60ED71EE81EF91EF7FE06C081E0CE
:10243000C81AD108E10880E8F80AC882D982EA827D
:10244000FB82C701B6019F77DF91CF91FF90EF909C
:10245000DF90CF90BF90AF909F908F9008958F9214
:102460009F92AF92BF92CF92DF92EF92FF926091D4
:102470002E0170912F0180913001909131016115F1
:1024800071058105910521F464E279ED8BE597E012
:102490002DE133EF41E050E00E949D1249015A01C5
:1024A0009B01AC01A7EAB1E40E94BC126B017C0164
:1024B000ACEEB4EFA50194010E94CA12C60ED71E5D
:1024C000E81EF91EF7FE06C081E0C81AD108E1082F
:1024D00080E8F80AC0922E01D0922F01E0923001DC
:1024E000F0923101C701B6019F77FF90EF90DF9026
:1024F000CF90BF90AF909F908F90089560932E01E2
:1025000070932F0180933001909331010895F999D0
:10251000FECF92BD81BDF89A992780B50895262FE8
:10252000F999FECF1FBA92BD81BD20BD0FB6F894B8
:10253000FA9AF99A0FBE01960895052E97FB1EF49C
:1025400000940E94B41257FD07D00E94CF1207FCDE
:1025500003D04EF40C94B4125095409530952195CB
:102560003F4F4F4F5F4F08959095809570956195BF
:102570007F4F8F4F9F4F08950E94F112A59F900D9E
:10258000B49F900DA49F800D911D11240895B7FF55
:102590000C94BC120E94BC12821B930B0895A1E202
:1025A0001A2EAA1BBB1BFD010DC0AA1FBB1FEE1FCD
:1025B000FF1FA217B307E407F50720F0A21BB30B18
:1025C000E40BF50B661F771F881F991F1A9469F794
:1025D00060957095809590959B01AC01BD01CF01F0
:1025E0000895A29FB001B39FC001A39F700D811DEC
:1025F0001124911DB29F700D811D1124911D08950C
:102600005058BB27AA270E9418130C9420140E942C
:10261000121438F00E94191420F039F49F3F19F475
:1026200026F40C940F140EF4E095E7FB0C940914B7
:10263000E92F0E94311458F3BA1762077307840711
:10264000950720F079F4A6F50C9453140EF4E09558
:102650000B2EBA2FA02D0B01B90190010C01CA015C
:10266000A0011124FF27591B99F0593F50F4503E07
:1026700068F11A16F040A22F232F342F4427585FF9
:10268000F3CF469537952795A795F0405395C9F711
:102690007EF41F16BA0B620B730B840BBAF09150C9
:1026A000A1F0FF0FBB1F661F771F881FC2F70EC068
:1026B000BA0F621F731F841F48F48795779567953B
:1026C000B795F7959E3F08F0B0CF9395880F08F027
:1026D0009927EE0F9795879508950E94E51308F4C2
:1026E00081E008950E9479136894B1110C945414F8
:1026F00008950E94391488F09F5798F0B92F9927B0
:10270000B751B0F0E1F0660F771F881F991F1AF0DC
:10271000BA95C9F714C0B13091F00E945314B1E0DA
:1027200008950C945314672F782F8827B85F39F0D9
:10273000B93FCCF3869577956795B395D9F73EF475
:1027400090958095709561957F4F8F4F9F4F08951D
:10275000E89409C097FB3EF490958095709561953B
:102760007F4F8F4F9F4F9923A9F0F92F96E9BB27F1
:102770009395F695879577956795B795F111F8CF6D
:10278000FAF4BB0F11F460FF1BC06F5F7F4F8F4FD8
:102790009F4F16C0882311F096E911C0772321F0CE
:1027A0009EE8872F762F05C0662371F096E8862F66
:1027B00070E060E02AF09A95660F771F881FDAF7BD
:1027C000880F9695879597F90895990F0008550FEA
:1027D000AA0BE0E8FEEF16161706E807F907C0F0A7
:1027E00012161306E407F50798F0621B730B840BAF
:1027F000950B39F40A2661F0232B242B252B21F489
:1028000008950A2609F4A140A6958FEF811D811D28
:10281000089597F99F6780E870E060E008959FEF62
:1028200080EC089500240A94161617061806090667
:10283000089500240A941216130614060506089536
:10284000092E0394000C11F4882352F0BB0F40F4BE
:10285000BF2B11F460FF04C06F5F7F4F8F4F9F4FFE
:10286000089557FD9058440F551F59F05F3F71F080
:102870004795880F97FB991F61F09F3F79F08795E7
:102880000895121613061406551FF2CF4695F1DF70
:1028900008C0161617061806991FF1CF8695710500
:1028A000610508940895E894BB2766277727CB0134
:1028B00097F908950E94E51308F48FEF08950E9498
:1028C00072140C9420140E94121438F00E941914EF
:1028D00020F0952311F00C9409140C940F1411247A
:1028E0000C9454140E94311470F3959FC1F3950F0A
:1028F00050E0551F629FF001729FBB27F00DB11D84
:10290000639FAA27F00DB11DAA1F649F6627B00D13
:10291000A11D661F829F2227B00DA11D621F739FFC
:10292000B00DA11D621F839FA00D611D221F749F0A
:102930003327A00D611D231F849F600D211D822F51
:10294000762F6A2F11249F5750409AF0F1F0882378
:102950004AF0EE0FFF1FBB1F661F771F881F9150A5
:102960005040A9F79E3F510580F00C9409140C9437
:1029700054145F3FE4F3983ED4F3869577956795BA
:10298000B795F795E7959F5FC1F7FE2B880F911DCF
:102990009695879597F90895AA1BBB1B51E107C02F
:1029A000AA1FBB1FA617B70710F0A61BB70B881FDF
:1029B000991F5A95A9F780959095BC01CD0108956E
:1029C000EE0FFF1F0590F491E02D099481E090E057
:0A29D000F8940C94EB14F894FFCF78
:1029DA00000001000000000100000000204100008A
:1029EA00A041000040400000803F000000009A998A
:1029FA00993EFFFFFFFF00E1000000000000010018
:102A0A00000000C18081000000000000000A05A249
:102A1A00062B05200571052F054D0500000000A6AF
:102A2A00071D06AB08AA085B0CFCFF00009D0C50B2
:102A3A0072657373204100486967682053636F7237
:102A4A00653A20004E6577205265636F72642100F3
:0A2A5A0047616D65204F766572003C
:00000001FF
